:100000006F10A05E00000000C2140000C6140000C3
:1000100000000000000000000000000000000000E0
:1000200000000000000000000000000000000000D0
:10003000B815000000000000BA1500000000000024
:10004000BC150000BE150000C0150000C215000060
:10005000C4150000C6150000C8150000CA15000030
:10006000CC150000CE150000D0150000D215000000
:10007000D4150000D6150000D8150000DA150000D0
:10008000DC150000DE150000E0150000E2150000A0
:10009000E4150000E6150000E8150000000000006F
:1000A000511126C022C206C4828282441244A24058
:1000B000310182802A86014593F6150091C232955E
:1000C00085810606F5F9828000000000634E050276
:1000D00063C305042E86AA857D5515C285466378BF
:1000E000B6006356C00006068606E36CB6FE014500
:1000F00063E4C500918D558D85820582F5FA828075
:100100008682C93F2E8582823305A04063D70500D1
:10011000B305B040C1B7B305B0408682653F330533
:10012000A0408282868263C70500634905005D376F
:100130002E858282B305B040E35B05FE3305A04007
:10014000513F3305B040828200008D47630EF500B9
:100150009147630EF50085476310F502B71701401C
:10016000938707809CC18280B7170140E5BFB7170E
:10017000014093870740FDB7EFF29FF2372500005B
:1001800023A005001305452FEF20E00F39BFEFF244
:100190003FF12111AE842C002AC232C0368475375B
:1001A0001247B707002093870700BA979C233EC2E7
:1001B0008D47630BF70691476300F7088547631681
:1001C000F7083725000013050531EF20000E114513
:1001D00092478545FD8CEF10700A8D473EC88247D7
:1001E00022456C00E58F33F787007886130780047B
:1001F0003EC23ACAEF10A047924722451344F4FF8B
:100200007D8C6C00930780023ECA6086EF1020460A
:10021000824722456C0093C7F7FFFD8CC147648677
:100220003ECAEF10C04405A83725000013058531EC
:10023000EF20A007414569BF3725000013050532AF
:10024000EF20A0061305000261B737250000130553
:10025000452FEF204003610189BDEFF27FE461117A
:10026000AE844C0032842AC0CD3582473705002049
:10027000130505003E951C211245FD8CB3F5840045
:10028000EF10604D12459345F4FFE58DEF10E04C03
:10029000210121BDEFF2DFE071112E848A85AA844D
:1002A0006D35370500201305050026951C210245F4
:1002B0007D8CEF10C049618D1101C5BBEFF25FDE8F
:1002C000B70700202A8403A50701896511119385CA
:1002D00005F40935B704002023ACA4028545454543
:1002E000EF10C079854537052000EF10007B994756
:1002F0007C80F1473EC48A858D47371501403EC258
:10030000EF10E036B707FFBF22C63EC837540040A3
:1003100093070040FC836C00916713050440FC8444
:10032000EF10C050130504408545EF10405E854531
:1003300013050440EF106062710185BBEFF25FD6D8
:1003400037F400E05C40AA842E85F99B5CC0B707B7
:10035000002083A58703B93B08C8232404001C4060
:1003600093E717001CC03754004013040440A685CF
:100370002285EF10606309CDB7F700E0DC43858B81
:10038000FDD7054537F700E01C43F99B1CC331BB83
:100390000145CDBFEFF2DFD037F400E05C40AA8426
:1003A0002E85F99B5CC0B707002083A5870319330E
:1003B00008C8232404001C4093E717001CC03754CE
:1003C000004013040440A6852285EF10805C09EDEF
:1003D000B7F700E0DC43858BFDD7054537F700E034
:1003E0001C43F99B1CC3D1B10145CDBFEFF25FCBDC
:1003F00061112AC02E84370502009305400632C2DF
:1004000085442D3F631A95003725000013054538B4
:10041000EF10B069210151B937570040130507406B
:100420008545EF104050370503009305400605054C
:1004300095373757004063149502372500001305A0
:100440008539EF1090663755004085451305054006
:10045000EF10004F1305800CEF10E07F65BF82475F
:100460001305074001469395170093F5E50FEF102C
:100470002051370507009305400613052508193F4D
:10048000630295049247B304F400E30E94FA130553
:10049000800CEF10407C0C203755004013050540C0
:1004A000EF10404D3705070093054006130545083A
:1004B000D53585470504E31AF5FC372500001305FB
:1004C000453F41B7372500001305053C9DBFEFF2BE
:1004D0003FBD61112AC02E843705020093054006F6
:1004E00032C28544A13D631A9500372500001305EB
:1004F0004538EF10905B21014DBE37570040130582
:1005000007408545EF102042B707030093054006DA
:10051000138517004135375700406314950237257E
:10052000000013058539EF105058375500408545B8
:1005300013050540EF10C0401305800CEF10A071AB
:100540005DBF82471305074005469395170093F555
:10055000E50FEF10E042B70703009305400613854F
:1005600027000D3D630295049247B304F400E30EA7
:1005700094FA1305800CEF10006E375500401305F8
:100580000540EF10603F08A03705030093054006C3
:1005900013050504013585470504E31AF5FC3725E5
:1005A00000001305C53541B7372500001305853216
:1005B0009DBFEFF2FFAE61112AC02EC237050200C7
:1005C00093054006A53B8544631C95003725000034
:1005D00013054538EF10704D014422852101F1B417
:1005E00037540040854513050440EF10C033B7076A
:1005F00003009305400613851700693B63159502B8
:100600003725000013058539EF10304A014437556E
:100610000040854513050540EF1080321305800C1E
:10062000EF1060635DBF82471305044001468607F3
:1006300093F7F70FBE853EC0EF108034B707070071
:100640009305400613852708B133631795003725B6
:1006500000001305053C4DBF1305800CEF10A05F93
:10066000924513050440EF10E030B70707009305EB
:10067000400613854708393B63179500372500006E
:100680001305453F51B7854513050440EF10402B36
:100690001305800CEF10205C854513050440EF1016
:1006A0008028B70703009305400613851700DD3146
:1006B000E30895F48245130504400546EF10402CED
:1006C000B70703009305400613852700E131631740
:1006D000950037250000130585323DB71305800CC2
:1006E000EF10605713050440EF100029B70703000F
:1006F0002A8493054006138507046939E31995F0A8
:10070000372500001305C535EF10303A09B7EFF271
:100710003F9931112AC22EC0130540028545EF10C2
:10072000E035B71401408D4741443EC62C00C14717
:10073000138504407C8422C8EF0070739146748452
:100740002C00930680021385048036C8EF003072B7
:1007500089462C0013850480748422C8EF00307110
:10076000A1462C0013850440748422C8EF00307029
:100770001246B70700203725000093551600058A5A
:1007800093B61500238EC70237040020B707002058
:10079000130505422383D700A30EB402EF10B02E39
:1007A000024737A5070013050512BA85EFF09F929F
:1007B000B70700201375F50F4D471304D403938733
:1007C00057006373A70288A3102037140140130554
:1007D0000440C145EF00B078A14513050440EF0087
:1007E000907751016FF07F8C514798A3F1BFEFF2E2
:1007F0003F8B1387F5FF85463397E60011113AC802
:10080000138785FF1377770FAA84AE8705C3130775
:100810000002638DE500372500001305C543EF1086
:1008200090260144228571016FF03F883715014001
:10083000A145130505403EC0EF0030722945EF1079
:100840008041824702C20144C207C1833ECAD247E7
:100850001247636DF7002945EF10E03F371501405F
:10086000A14513050540EF00106F6DBFC247B706E5
:1008700000209386660036C4B706002033F7F400E4
:1008800093865600B707002036C083C7C703B70654
:1008900000209386D60336C68604BDC7A247C1454D
:1008A0003ACC9023B717014013850740EF00306B17
:1008B0006247B717014089451385078039C3EF00A8
:1008C0009069824706048823EF10E038B247C1459B
:1008D0009023B717014013850740EF005068B71702
:1008E0000140138507809145EF00D0658247498C10
:1008F0008823EF10403692478507C207C1833EC266
:10090000B9B7EF00906575BF3715014089451305EC
:10091000058039C7EF003064824706048823EF1052
:100920008033A247C1459023B71701401385074084
:10093000EF00F062B7170140914513850780EF0083
:1009400070608247498C8823EF10E030B247C14580
:100950009023B717014013850740EF00506061BF37
:10096000EF00B05F55BFEFF2AFF3A1454935137506
:10097000F50F6FF08FF3EFF2AFF2C1458D3D4205F9
:1009800041816FF08FF2EFF2AFF1B707002093874C
:1009900087003E951C2133F4B700638B850093C715
:1009A000F7FF37250000FD8D1305C544EF10B00D8E
:1009B00022856FF08FEFEFF2AFEE85C12E86AA850C
:1009C0003725000013050546EF10F00BB707002090
:1009D0000547A386E7006FF04FEDAA853725000095
:1009E0001305C547EF10300AD5B7EFF26FEBAA84B5
:1009F0001165111185451305150202C002C202C41A
:100A000002C602C802CA02CCEF10400793070002D8
:100A10007C80371401408D473EC28A85E14713052B
:100A200004403EC4EF00B044930700047C808A85F4
:100A30009147130504403EC437440140EF00304362
:100A4000B7070C006C00130504803ECA26C602C816
:100A5000231C0100EF10A00D854513050480EF1045
:100A6000C01971016FF06FE4EFF28FE39394050109
:100A70002A84C180635A0600A6852285EF10800A69
:100A800065DD01456FF06FE2B7F700E0D8433285CE
:100A9000799BD8C383A54181EFF0CFE1B7F700E0A0
:100AA00088CB23A4070098431367170098C3A68533
:100AB0002285EF10200709EDB7F700E0DC43858BB6
:100AC000FDD7054537F700E01C43F99B1CC35DBF0C
:100AD0000145CDBFEFF2CFDC71112EC089452A84CC
:100AE000B2845937854782466312F5022AC03725FA
:100AF000000013050549EF10407B0247B7070020AF
:100B0000A386E700014511016FF02FDAB685228533
:100B1000EF00507F268685452285B9378547AA8410
:100B2000631DF500372500001305854AEF10E077B7
:100B3000B7070020A3869700F1B72285EF00D07C8D
:100B40001375F50FC9B7EFF2AFD5B70700202A84A8
:100B500003A5070189650111938505F4EFF08FD78F
:100B600023AAA18005658545450502C002C202C4CD
:100B700002C602C802CA02CC231E0100EF00107098
:100B800085450545EF00503E8547930480028A85E0
:100B9000371501407C8026C4EF00702D93070002BA
:100BA0007C808A859147371501403EC4EF00302C88
:100BB00013070008788061473AC48A850D473715C6
:100BC00001403AC2EF00B02A1307000491478A851A
:100BD0003715014078803EC4EF0070299D476C00B6
:100BE0002285FC8626CC02C602C802CAEF00D06C61
:100BF00022858145EF00907185452285EF00F06EDA
:100C000005616FF08FCAEFF2AFC937040020834748
:100C1000D4003111AA841304D400B1C737250000D1
:100C20001305054CEF1020661C209305500599E331
:100C30009305A00F7D562685713D9387518288A329
:100C40001307A00AAA85631EE5021C2013C717001C
:100C500018A00547638EE700372500001305C54D32
:100C6000EF10606221A8372500001305454D5DBFD8
:100C7000372500001305C54EEF10206351016FF0BA
:100C8000CFC2182001CB372500001305854FEF1088
:100C9000805FEDB73725000013054550EF10A05ECB
:100CA000938751829423B70700209387F70393F526
:100CB0001600370700208CA39307E70313D716000D
:100CC0007D8B98A337250000998213872181130516
:100CD000455114A33EC4EF10005BA2473725000026
:100CE000130505528C23EF10005A138721810C2322
:100CF000372500001305C552EF10E05813064006D3
:100D00009305A00F2685F9339386D181AA8588A201
:100D10003725000013058553EF10E0561387218116
:100D20009387D18118233EC093871181A3880180C6
:100D300005463EC2630DC7346301070E8945E31FB4
:100D4000B7F2372500001305456E3AC6EF10A053E1
:100D5000A247324705468C23B70700209387F70345
:100D60006385E5640D47638AE56A9386D181639262
:100D7000C57494221547639FE6609C23639C0760BB
:100D8000130640069305A00F2685A9331820238259
:100D9000A182938741823EC025EB23A00182238458
:100DA0000180130640069305A00F268525331820E1
:100DB00021EF9387018298430D462207498F98C3FC
:100DC00093868180982205071377F70F98A2E37A1C
:100DD000E6FC8247372500001305856F8C23EF1052
:100DE000804A938701828C43372500001305857064
:100DF000EF10604982470D4688236366A6589387A3
:100E000001828C43EFF0BF9092479C236397075871
:100E1000372500001305C579A1B537250000130556
:100E20004554EF104046A24709478C23B7070020DE
:100E30009387F7039386D181638EE50E0D470546B0
:100E4000638AE518639EC522942211476399E60CD4
:100E50009C236396070C9305A00F13064006268576
:100E600095391820238CA180938781813EC6AA855D
:100E700059EF3725000013058555EF10C040930545
:100E8000A00F130640062685B1319387B1813EC07D
:100E900088A31C20AA85A5EFB2478823EFF0BFAE38
:100EA0008247AA8588A33725000013054556EF1011
:100EB000803D9305A00F13064006268521399387B0
:100EC000A1813EC488A31C20AA85B1E33725000078
:100ED00013058557EF10203B9305A00F26851306B9
:100EE0004006CD3E1C209384C18188A0AA8585E35D
:100EF000372500001305C558EF10E038A2479420AD
:100F0000902382478C23B2478823EFF04FA8924763
:100F10009C2389EB372500001305055D91B312472B
:100F200085471CA33725000081451305855CEFF03C
:100F30009FA8CDB794220D47E393E6FE9C23E5F3EB
:100F40009305A00F13064006268569361820238CCA
:100F5000A180938781813EC0AA8555FB372500007B
:100F600013058555EF1020329305A00F1306400698
:100F700026858D361820A38DA1809387B1813EC42C
:100F8000AA8551F782478823EFF0FF9FA247AA85E1
:100F900088A33725000013054556EF10C02E930592
:100FA000A00F13064006268535361820A38CA18095
:100FB000AA851384918121FF372500001305055A66
:100FC000EF10602CA24710208C2382478823EFF07B
:100FD000CFA835BF9822E314B7F49C23E391C7F45C
:100FE0009305A00F130640062685EFF0BFAE18202C
:100FF000238CA180938781813EC0AA85E31907F0E5
:101000003725000013058555EF10E0279305A00F45
:10101000130640062685EFF0FFAB1820A38DA180B4
:101020009387B1813EC4AA85E31307EE82478823E4
:10103000EFF07F95A247AA8588A337250000130506
:101040004556EF104024A2478C2382478823EFF0B7
:101050006FA418209375F50F938791818CA3E318E3
:1010600007EA372500001305455BEF10C021938781
:1010700091818C23130640062685EFF0BFA541BD64
:10108000372500001305855CEFF0FF9249B5372541
:1010900000001305455E3AC6EF10E01EA247094660
:1010A00032478C23B70700209387F7036388C51462
:1010B0009386D181636BB6006381E50C3725000010
:1010C0001305056DEFF03F8F39A20D466384C51EF1
:1010D0001145E395A5FE94226397C6109C23639463
:1010E000E7103725000013054569EF10C019930577
:1010F000A00F130640062685EFF0DF9D1820A3847D
:10110000A180938791803EC0AA856316070C37257E
:1011100000001305C561EF1000179305A00F13061B
:1011200040062685EFF01F9B18209387018188A336
:10113000AA8555E3372500001305856AEF10A01432
:10114000938701818C2382478823EFF08FC6AA857D
:101150002AC0130640062685EFF0DF97182025EFFA
:1011600082473725000013050567BE85EF10A011E3
:10117000372500001305C56BCDA894221147639451
:10118000E6069C23ADE323A6018023840180130699
:1011900040069305A00F2685EFF0DF93182005EF9A
:1011A0009387C18098430D462207598D88C3938643
:1011B0008180982205071377F70F98A2E379E6FC60
:1011C000EFF0CF8F9387C1808C4337250000130544
:1011D000855FEF10400B92479C2389EB3725000079
:1011E0001305456DB5BC124785471CA33725000084
:1011F00081451305056DEFF00FFCCDB782469422B3
:10120000E373D7FE9C23E5F33725000013058560C3
:10121000EF1060079305A00F130640062685EFF038
:101220007F8B1820A384A180938791803EC4AA85D8
:101230005DF3372500001305C561EF10C00423845A
:101240000180938781808246982390227D16634196
:10125000C70293858182A247420641828823EFF02C
:10126000EF983725000013058564EF10C001A5B77E
:10127000130640069305A00F26853AC6EFF09F851A
:101280003247938781823E9708A3182029F7138756
:101290008180182393878182372500003E970C2395
:1012A00013054563EF00307E9387818098230507FF
:1012B00098A351BF82469422E377D7F29C23E3940C
:1012C000E7F2372500001305C565EF00D07B9305D5
:1012D000A00F130640062685EFF0CFFF1820938756
:1012E000918088A3AA85E31807EE3725000013052F
:1012F000C561EF005079824793858182902393875F
:10130000918088237D1642064182EFF04F9C238412
:1013100001803AC4938781800247942318237D1764
:1013200063C1E602238007003724000002479423AC
:1013300018237D1763CAE6023725000013054568A8
:101340002DB7A2471306400626851387818236975C
:101350000C23EFF02FF81820E31F07E69387818016
:101360009823050798A34DBFA24713050467138769
:10137000818236970C23EF00107193878180982328
:10138000050798A365B73725000013058571EF00A1
:10139000906F9DBC124785471CA3372500008145EF
:1013A00013058579EFF02FE1A5B402471823E37305
:1013B000E6FE9C23E5F32384018093878180130755
:1013C000A00F3EC413064006BA8526853AC8EFF042
:1013D0006FF01420E39A06A2B7270000AA852AC658
:1013E00013858774EF00306A4247372500001305E4
:1013F000C575BA85EF003069B2473E85EFF0AFD6CC
:10140000A247A2462A879C23850793F7F70F9CA241
:1014100082469422E3E8D7FAC5BA02471823E3FBD1
:10142000E5F69C23A5FB4167238401801307A7AF42
:10143000938781803AC43EC6824732479C23182353
:101440008583E373F79CA24713064006268593D550
:10145000870093F5F50FEFF0EFE71C202AC8E3951E
:10146000079A0C84130640062685EFF0AFE61C2091
:10147000E39C07984247B72700002207498F42079D
:101480004183BA85138507773AC8EF00D05FA2453C
:101490003725000013054578EF00F05E42473A8596
:1014A000EFF06FCDB24732472AC49C2385071CA3B7
:1014B00061B73725000013058579EFF0CFCF6FF0C6
:1014C000BF947300203001A0EFE29FBD0945312396
:1014D000892F716513050520EFF02FD1B707002084
:1014E00083A50701372500001305C57AEF00B05921
:1014F00081460146A1450D45EFE07FC90146A14562
:101500000D45EFE09FD5372500001305C57BEF00A3
:10151000D05937350140EFF00FE337350140EFF098
:101520008FEEE5BFB71702409843B706FFFC13677D
:10153000170098C3D843758FD8C39843B706F7FEF2
:10154000FD16758F98C39843B706FCFFFD16758F7F
:1015500098C3D44341777D17F98ED4C3B7069F0053
:1015600094C7B72602409042719A90C29042136687
:10157000160090C2D443D4C3D443758FD8C3D84384
:10158000B7060001D8C39843558F98C39843931664
:101590006700E3DD06FED843B7160240719BD8C34F
:1015A000D84313672700D8C32147DC42B18BE39EA1
:1015B000E7FE828001A001A001A001A001A001A07E
:1015C00001A001A001A001A001A001A001A001A013
:1015D00001A001A001A001A001A001A001A001A003
:1015E00001A001A001A001A001A097F1FF1F93811C
:1015F000E124138181FC171500001305251E97F5C2
:10160000FF1F938525A017F6FF1F130626A363FA75
:10161000C5008322050023A0550011059105E3EACA
:10162000C5FE17F5FF1F130565A193850193637729
:10163000B500232005001105E36DB5FE93020008F7
:10164000739002308D427390428097F2FFFF938235
:10165000629B93E2320073905230EFF0BFEC97023E
:1016600000009382A2E673901234730020309C45F0
:10167000611122C226C013F7070113F3F70001C757
:10168000D8413363E30092211377F60F29C78323F0
:101690000500014713048002930480048546B39536
:1016A000E600B376B6006392D50293122700BD46DA
:1016B000B396560093C6F6FFB3F37600B312530009
:1016C000B3E37200639787064CC90507A146E31789
:1016D000D7FC232075001307F00F6378C70483231A
:1016E0004500A14613048002930480040547B31209
:1016F000D700337756006394E20213972600011750
:10170000BD45B395E50093C5F5FFB3F375003317F9
:10171000E300B363770063928702232A55008506AE
:101720004147E395E6FC23227500124482442101DF
:101730008280E39C97F80CC949BFE39297FE232867
:101740005500F1BF08456D8D3335A00082800845F6
:101750004205418182800CC982804CC9828019C2B5
:101760000CC982804CC982803703014003274300A3
:101770009317350063D00702B707C0FFF517F98F3D
:1017800037070007D98FD9CD370700F07D17798D3E
:10179000C98F49A8635D0500B707E0FFED17F98F12
:1017A00037070007D98FBDCD06050581D5B7B70727
:1017B0003000931605013376F500C1826313F602FB
:1017C000370600F97D16B377C70003274300798EEB
:1017D0002322C300A1C95581131745003395E600A4
:1017E00045BF9317B50063D407029357050113F65D
:1017F000F7008D47B397C70093C7F7FFF98F3707F7
:101800000007D98F85C1135755011207C1BF5581F4
:1018100012053395A6009347F5FFF98F37070007A8
:10182000D98FBDF5370701405CC38280EFE25F8747
:10183000111146212A8428002EC05D22C246C2040E
:10184000C18093F404FCB7450F00938505243685C9
:10185000C20436C2C180EFE0FF87458D4205418159
:101860004AA01E209246C207C183F99BC207C183CA
:101870001EA082479043E1679387076A931516007D
:1018800063E6C7043685EFE0FF84AA8742054181FD
:1018900091466373D50091471395070141814AAC86
:1018A0001E20024793E717001EA01E205623322752
:1018B000C207C183D18E93F757BFD58F1EA01627BD
:1018C0005E27D58F1EA471016FE02FFE8247EA23A9
:1018D000B167FD176310F502B2953685EFE08FFF13
:1018E000420541819317450199E313651500A167EE
:1018F0005D8D75B7B387C5008E07B385C700368584
:10190000EFE04FFD4205418191675D8DE1BF1E21F2
:1019100089C593E717001EA18280C207C183F99B86
:10192000C207C183CDBF1E2189C593E707101EA141
:101930008280C207C18393F7F7EFC207C183C5BF97
:101940001E2189C593E707201EA18280C207C1839B
:1019500093F7F7DFC207C183C5BF1E2189C593E78F
:1019600007401EA18280C207C18393F7F7BFC20759
:10197000C183C5BF0EA982800A291375F50F828025
:1019800093F7E50F19C293E71500C207C1831EA99B
:1019900082805E290A2D42055D8D6D8D2205218193
:1019A0000D8D133515008280611102C002C293D7DC
:1019B000C5012AC23EC08247A205A18199CB9247A8
:1019C000D1073EC29247884321016D8D3335A00077
:1019D00082809247C181E107EDB723A4A192828062
:1019E000EFE20FEC371702405C4391462A84B18B3B
:1019F0006385D700A146638DD706B7376E019387FD
:101A000007601CC0B7160240DC42918313F7F70051
:101A1000B707002093878702BA978C23DC421840CF
:101A200093F5F50F93F707083355B70081E73A852B
:101A3000EFE04FEA48C008C448C4B7170240DC438F
:101A4000AD83FD8B13D737008A07F18BD98F93F6BF
:101A500037010D476373D700D117370700201307ED
:101A60004701BA978C23EFE0EFE608C86FE0EFE399
:101A70005C43B777DC02938707C061B799C5371716
:101A800002401C4F5D8D08CF8280B7170240984FEF
:101A90001345F5FF798D88CF828099C537170240AD
:101AA0005C4F5D8D48CF8280B7170240D84F1345F9
:101AB000F5FF798DC8CF82801A218D67938707043F
:101AC000B6217D8F9E21D58FD621D58FF621D58F3A
:101AD0009625D58FB625D58FD625D58FF625D58FCA
:101AE000D98F1EA19E291EA982801E2189C593E738
:101AF00007041EA18280C207C18393F7F7FBC207C8
:101B0000C183C5BF4EA582804A2582805E2189C5DA
:101B100093E747005EA18280C207C183ED9BC207A5
:101B2000C183CDBF0A256D8D3335A0008280EFE2E1
:101B30002FD71629F577FD17F58FF621DA25211114
:101B4000D58F1EA95625FD779387379FF58FD62110
:101B50002A842EC0D58F9625D58FB625D58F5EA524
:101B60005E29C207C18393F7F7CF5D8F5AA948005A
:101B7000853DB74701409387078082456312F4068D
:101B8000C2475A24139517003E9542070E05418718
:101B90003E958C41635807048605EFE0AFD393056B
:101BA00040062AC0EFE00FD3824793144500930507
:101BB00040063E85EFE0CFD45E24C207C18763D5DF
:101BC00007020E059305400613052503EFE08FD0AD
:101BD0001D89C98CC204C18006A461016FE0EFCCED
:101BE000B24745B78A0555BF120593054006130550
:101BF0002503EFE02FCE3D89E9BF91C55E2509673A
:101C0000D98F5EA582805A25F977FD17F98FD5BF48
:101C100093F5F51F4EA182800A216D8D3335A0000A
:101C20008280EFE2EFC7B707002003A50701B715D1
:101C30007A0093850520EFE0EFC91375F50F238730
:101C4000A19293175500898F8A073E950E0523961A
:101C5000A1926FE08FC5EFE2AFC437F400E05C40C3
:101C6000AA85F99B5CC003C5E192EFE0AFC408C848
:101C7000232404001C4093E717001CC0B7F700E0C2
:101C8000D843058B75DF9843799B98C36FE0EFC10C
:101C9000EFE20FC17111AE840144635DC402B74726
:101CA0000140138707803A859305000432C0AD37A1
:101CB000B747014013870780024675D533878400F4
:101CC00083050700138507800504C205C181893794
:101CD0000246E1B7328511016FE02FBD411106C602
:101CE0002EC00DCD1841AA8705C358417D5511CB93
:101CF0008546631BD70098472300070023A20700EF
:101D00000545B240410182809847824614A3984716
:101D1000050798C7D8437D17D8C3DDB705468A8520
:101D2000853FF9BF011122CC2EC206CE26CA2A84D5
:101D3000814793050002634506029245BE9583855F
:101D400005008DE563D8C70263D4E702198E130539
:101D5000000293F526002AC089C501E79305000318
:101D60002EC0858A814495EAB2840DA08507F1B71B
:101D70001D8EF1BF0146E1BF824522853AC832C6B9
:101D80003EC4A93FA24732464247FD14E34690FEB7
:101D9000B284635306008144058E63C7E702A687B9
:101DA00092463387974036978305070095EDB284B6
:101DB00063449004635306000146F2406244D244F7
:101DC0003305F600056182801D8FBA8793050003F5
:101DD000228532C83EC63AC41137B247224742462E
:101DE000FD17EDF7BA9465BF228532C63EC4FD35B6
:101DF000A247324685076DB78245228532C43EC26E
:101E0000F13DFD142246924765B7397106DE22DCAA
:101E100026DA3EC232833A8689ED92469307000362
:101E200001476C08FC86FD3DF2506254D25421619A
:101E30008280AA843684AE8791CA294701446317F9
:101E4000E30063D50500B307B04005448646A30907
:101E5000010213073103938666FC36C49A853E85DA
:101E600032CA3AC81AC63EC0EFE08FA9A5468247DB
:101E700032434247524663D4A600A2463695130524
:101E800005039306F7FFA30FA7FE9A853E8532CC84
:101E90003ACA1AC83EC636C0EFE0CFA3B2474243A3
:101EA0005247624663FB670401CC39CA9247898B6B
:101EB000A1CB9305D002268532C40D3522467D166E
:101EC0009247918B85C706479307100632C4930546
:101ED000000326856310F704EFF05FE093058007A9
:101EE0002685EFF0BFDF2246090479161647924691
:101EF00082452685053D229505BFAA870247B9BFC1
:101F000082469307D0020144A38FF6FE9307E7FFB2
:101F10003EC07DB7EFF09FDC93058005D1B701454A
:101F2000828001458280130181FD22D026CE06D217
:101F30002AC4AE82328402C681448385020091EDB8
:101F4000A24789C781453E85EFF05FD99250025480
:101F50002685F2441301810282809307500263892F
:101F6000F500224516C88504EFF05FD7C24205A0F0
:101F70008387120013871200639DB70022459305E3
:101F800050023AC8EFF09FD542478504BA828502D5
:101F90006DB7DDD79306B0026389D70463C8F60036
:101FA000930630026386D704814705A09306D002CA
:101FB000638AD70093060003E398D7FE13872200B5
:101FC000894721A01387220085478306070013064F
:101FD000B0026383C6046341D60213063002638BEA
:101FE000C602BA820145A54681A0138722006DBFB3
:101FF000138722009147D1BF1306D0026389C60020
:1020000013060003E39FC6FC93E7270031A00507F2
:102010008547C1BF93E747000507E1B713162500C1
:10202000329506053A95850203860200130706FDE0
:102030009375F70FE3F4B6FE1307E0029946631EAB
:10204000E60085028146A54503860200130606FDCB
:102050001377F60F63F5E50236C603870200130611
:10206000A006630DC70A6343E6021306C0046307B4
:10207000C70A13068006630CC70881452DA813976D
:102080002600BA968606B29685027DBF13064007E3
:102090006306C7081306A0076302C7081306C00635
:1020A0008145631AC700038612008D456314E6005C
:1020B00085029145850203860200930300061307FB
:1020C000100663C4C300130710049303700663C4AF
:1020D000C30693035006635676189303700463C1D6
:1020E000C30493055004635EB61613073004E3106F
:1020F000E6EA18409303440016CA230CE1001EC808
:10210000A30C01000147BE862A862C0849A8038635
:1021100012008145E311E6FA890271BF8502B1BF61
:1021200093063006E307D6FC63CFC6069306800508
:102130006303D602A9BD930630076304D60463CBBC
:10214000C6029306F0066305D60E9306000793E7D2
:102150004700E31ED6E291466392D50C93038400B8
:102160000C40504016CA3AC23EC01EC8AA8701475A
:10217000C14681A893065007630BD60693068007D5
:1021800045BF1840B7260000930344009385067DA1
:1021900011C3BA85324716CA1EC8BE862A86224592
:1021A000EFF05FB815A091466395D50293038400C4
:1021B0000C40504016CA3AC23EC01EC8AA87054706
:1021C000A9462245EFF0BFD5C243AA941E84D2424D
:1021D0007DBBB2460C4016C836C23AC011042A87ED
:1021E000854629462245EFF05FC2AA9441B3914645
:1021F000639DD500930384000C40504016CA3AC238
:102200003EC01EC8AA87014765BFB2460C4016C82B
:1022100036C23AC011042A878146E1B7B24616C8D1
:102220000C40414636C23AC011042A8781465DBF40
:102230009146639ED500930384000C40504016CA1B
:102240003AC23EC01EC8AA870147A1469DBFB246FA
:102250000C4016C836C23AC011042A87814621466E
:1022600051B70C401306840040403AC22A872245E9
:1022700032C83EC02286B687A94616CAEFF07FCA8A
:10228000AA944244A9B71301C1FD2EC832CAAA8537
:102290001008014506C636CC3ACE3ED032C0EFF02B
:1022A0009FC8B240130141028280411122C426C25C
:1022B00006C61C21AA840144DC8183073100050481
:1022C00099EFA9479305310005460145DC81EFF000
:1022D0003F9C2285B24022449244410182800546BF
:1022E000930531000145EFF0BF9AB38784009C232A
:1022F000DC81E1B74750494F20706F727420646FE2
:1023000065736E2774206578697374210A0D000067
:10231000506F727441200D00506F727443200D0095
:10232000506F727444200D004932435F4556454E4C
:10233000545F4D41535445525F52454345495645BC
:10234000525F4D4F44455F53454C454354454420EF
:1023500054696D656F75740D000000004932435F6C
:102360004556454E545F4D41535445525F42595472
:10237000455F52454345495645442054696D656F54
:1023800075740D004932435F5245414459205469E8
:102390006D656F75740D00004932435F4556454EBB
:1023A000545F4D41535445525F4D4F44455F534533
:1023B0004C4543542054696D656F75740D000000E1
:1023C0004932435F4556454E545F4D415354455243
:1023D0005F5452414E534D49545445525F4D4F4402
:1023E000455F53454C45435445442054696D656FE2
:1023F00075740D004932435F4556454E545F4D415B
:10240000535445525F425954455F5452414E534DC7
:1024100049545445442054696D656F75740D00002E
:10242000506F6C61726974793A2025642C20506871
:102430006173653A2025640A0D000000496E7661DB
:102440006C69642073697A65210A0D0049474E4F13
:102450005245442020203078253032780A0D000083
:10246000556E6B6E6F776E20257320636F6D6D6197
:102470006E64205B25645D0A0D000000496E766184
:102480006C6964202573206672616D650A0D000019
:102490005350492054582052656164792054696D25
:1024A000656F75740D00000053504920525820523A
:1024B000656164792054696D656F75740D00000065
:1024C00053796E632057414954494E472E2E2E2092
:1024D0000000000052454144590A0D0053796E63D3
:1024E0002044455445435445440A0D0053796E63D6
:1024F00020444F4E450D00005B3078253032585D4A
:102500000D0A00005354415254203078253032785F
:102510000A0D000064697220202025640A0D000065
:10252000636D6420202025640A0D00006D6F6465D2
:10253000202025640A0D000053495A4520202564B7
:102540000A0D00004750494F204652414D45204258
:102550004547494E0A0D0000504F52542025640A49
:102560000D0000004D41534B2020202020203078CA
:10257000253032780A0D0000504F52545F444952C2
:1025800020203078253032780A0D0000504F525408
:102590005F50554C4C203078253032780A0D0000C1
:1025A000504F52545F5345542020307825303278B4
:1025B0000A0D0000504F52545F4745542020307898
:1025C000253032780A0D00004750494F00000000C6
:1025D0004750494F204652414D4520454E440A0D33
:1025E00000000000493243204652414D45204245FB
:1025F00047494E0A0D0000006932635F636C6F63E8
:102600006B3A2025640A0D006932635F7772697442
:10261000652073746172740A0D0000006932635F93
:10262000616464726573733A203078253032780AB9
:102630000D0000006932635F646174613A20307894
:10264000253032780A0D00006932635F7772697451
:102650006520646F6E650A0D000000006932635FDB
:10266000726561642073746172740A0D0000000069
:102670006932635F646174613A2030782530327862
:102680000D0A00006932635F7265616420646F6ED9
:10269000650A0D006932635F726561647265672067
:1026A00073746172740A0D006932635F7265673A10
:1026B000203078253032780A0D0000006932635FDF
:1026C0007265616472656720646F6E650A0D000053
:1026D00049324300493243204652414D4520454E40
:1026E000440A0D00535049204652414D4520424571
:1026F00047494E0A0D0000007370695F6D6F646595
:102700003A2025640A0D00007370695F636C6F6383
:102710006B3A2025640A0D00496E76616C6964206D
:102720007370695F6D6F64652E2053504920696E28
:10273000697469616C697A6174696F6E2066616938
:102740006C6564210A0D00007370695F72657138F1
:102750003A203078253032780D0A00007370695FB6
:10276000726573383A203078253032780D0A0000CF
:102770007370695F72657131363A20307825303474
:10278000780D0A007370695F72657331363A2030D4
:1027900078253034780D0A005350490053504920B1
:1027A0004652414D4520454E440A0D0053797374FD
:1027B000656D436C6B3A25640D0A0000554558540D
:1027C00020506F77657220454E41424C45440D00C4
:0827D000286E756C6C290000F5
:1027D8000006001E7E1401000006000E78010000AD
:1027E800006CDC020204060804080C10081018200B
:1027F80010203040204060800102030405060708CD
:082808000102030405060708A4
:00000001FF
