:100000006F10502000000000C6180000CA18000041
:1000100000000000000000000000000000000000E0
:1000200000000000000000000000000000000000D0
:100030004A24000000000000D41900000000000065
:10004000D6190000D8190000DA190000DC190000E8
:10005000C6060000E0190000E2190000E4190000E3
:10006000E6190000E8190000EA190000EC19000088
:10007000EE190000F0190000F2190000F419000058
:10008000080E0000F8190000FA190000FC19000021
:10009000FE190000001A0000021A00000000000013
:1000A000511126C022C206C4828282441244A24058
:1000B000310182802A86014593F6150091C232955E
:1000C00085810606F5F9828000000000634E050276
:1000D00063C305042E86AA857D5515C285466378BF
:1000E000B6006356C00006068606E36CB6FE014500
:1000F00063E4C500918D558D85820582F5FA828075
:100100008682C93F2E8582823305A04063D70500D1
:10011000B305B040C1B7B305B0408682653F330533
:10012000A0408282868263C70500634905005D376F
:100130002E858282B305B040E35B05FE3305A04007
:10014000513F3305B040828200003D432A876373EC
:10015000C3029377F700BDEFADE5937606FF3D8AC6
:10016000BA960CC34CC30CC74CC74107E36BD7FE10
:1001700011E28280B306C3408A0697020000969679
:100180006780A6002307B700A306B7002306B700C1
:10019000A305B7002305B700A304B7002304B700E5
:1001A000A303B7002303B700A302B7002302B700DD
:1001B000A301B7002301B700A300B7002300B700D5
:1001C000828093F5F50F93968500D58D9396050162
:1001D000D58D61B793962700970200009696868288
:1001E000E78086FA9680C1171D8F3E96E374C3F8A8
:1001F000A5B78D47630FF5009147630FF50085475D
:100200006311F502B7170140938707809CC1014530
:100210008280B7170140DDBFB717014093870740C1
:10022000F5B723A0050005458280EFF27FE7211195
:10023000AE842C002AC2328436C0653F8547630BEA
:10024000F50412470D4682466308C704114663074A
:10025000C70405456310F70411458D679387072C84
:10026000BA979C23854536C0FD8CEF1050718246AD
:100270008D473EC893970601C18733F78400224516
:1002800063D1070219CF914778863ECA6C00EF1000
:1002900070200145610111BD4145C1B71305000240
:1002A0006DBFF98E74866C00930680043EC23AC01E
:1002B00036CAEF10301E92470247224593C7F7FF18
:1002C000F98F7C866C00930780023ECA1344F4FFCA
:1002D000EF10501C658CC14760863ECA6C002245F9
:1002E0007DB7EFF2FFDB6111AE844C002AC032848F
:1002F000093705476305E50282470D651305052C9F
:100300003E951C211245FD8CB3F58400EF1010279B
:1003100012459345F4FFE58DEF109026014521012C
:1003200069B3EFF2FFD785471387C180954633063F
:10033000F700102201CEB707002003C607003336AE
:10034000C0001206C1450D45693F85B38507E3909E
:10035000D7FEB707002003C6070013361600D5B72F
:10036000EFF21FD461112E844C00AA8432C05135A3
:1003700085476306F5048D679387072CA6979C2312
:10038000124593F4F40F7D8CEF10D01E0246618D60
:100390009387C1800AA2A69798230145B37487006A
:1003A00099CC1344F4FF798C80A311E09D3FB707EB
:1003B000014003A707400145D98C23A097402101A4
:1003C000EDB1EFF2FFCD2A84014611E14146C1456E
:1003D0000D45013F85476307F500B70700202380DF
:1003E00087000145D9B1EFF2BFCB130181FD614612
:1003F0002AC08145080802C202C402C6B933854535
:1004000013050002EF10B057854513050020EF10CB
:1004100010573165EF10B04B9147371501407C8282
:100420004C008D47130505403EC402C6EF109006F0
:1004300037240140B7070E003ECE0C088547130550
:1004400004402302F10202C802CA02CC02D0EF101B
:10045000A063B705000213050440EF1040798545FD
:1004600013050440EF10206713050440EF10A06748
:10047000EF107078AA84B727014013850740EF106A
:10048000206709ED13050440EF100067EF10B07608
:1004900037240140AA84130404400DA0EF10B07566
:1004A0008247058DE369F5FC054513018102F5BE20
:1004B000EF1070748247058DE378F5FE2285EF100A
:1004C00040647DF5B70700200547238CE70201450E
:1004D000E9BFB707002083C78703ADC3EFF25FBC56
:1004E000411132C42EC22AC6EF10F070B245372433
:1004F00001402AC09D46054613050440EF10606286
:10050000854513050440EF1040609304044089457D
:100510002685EF10206D09C913050440EF10006C0B
:10052000A2478AA3014509A8EF10F06C82471D8DF0
:100530009247E36EF5FC0545410185BE0545828085
:10054000EFF21FB651112E842AC4B6853A8536C003
:1005500032C2EF20B0051246AA8433058640EF2050
:10056000B042AA852685EF20802AA247AA84338537
:100570008740EF207041AA852685EF20205A8246C9
:10058000B685EF101070B737000083A5C72BEF209A
:10059000E058EF20103A42054181310139B6EFF2BF
:1005A0003FB0130181FDA1473EC67D15B1473EC84E
:1005B0001375F50FC147AE8432C03ECA02CC02CEDD
:1005C00002D002D202C202C4EF10B00802463C10B0
:1005D00005447D160A063E96832746FE2808B31476
:1005E000940026CC3ED022D202CEEF108061930739
:1005F00040117C82480089475C8322C4EF10D022DE
:10060000130181025DB4B7070140944713971500A9
:100610008D47B397E700F58FB3D7E7008507631FD2
:10062000F502EFF2FFA79387C1803E9518212E8433
:10063000B377B70099C793C7F5FFF98F1CA191E372
:10064000CD3137070140832607408547B3978700A0
:1006500093C7F7FFF58F2320F74081BC82809387F3
:10066000C1803E9508218280EFF29FA39387C180CD
:100670007111AA9780232AC0238007005D31B70734
:10068000014003A707400245418F23A0E740B70779
:1006900000209387C703AA978823110139B4EFF28A
:1006A0003FA09387C180D82313670704D8A3953947
:1006B000EDBAEFF2FF9E9387C180D8231377F7FB43
:1006C000D8A38531DDB2411122C626C40144854735
:1006D0003E853EC0EF10805982473DC5B7060140B8
:1006E00083A5064013C6F7FF0D456D8E23A0C640B7
:1006F000944633158500758D3355850005051386A1
:10070000C1802A960C22B3F6F50095EAB7040020C2
:1007100093F6F70F9384C403AA94D58D0CA290206E
:1007200093C6F6FF4C00F18E3EC094A0D93412451A
:10073000EF104064824794207D8D558D88A03E85C2
:100740003EC0EF10805482470904C1468607E3117A
:10075000D4F8C13E3244A244410173002030EFF28C
:100760003F942A84AA8537959800111113050568CE
:10077000EFF05F963D1523AAA18085454545EF1012
:100780001020854537052000EF10502199477C80C7
:10079000F1473EC48A858D47371501403EC2EF10B0
:1007A000604FB707FFBF22C63EC8375400409307CB
:1007B0000040FC836C00916713050440FC84EF103B
:1007C000606B130504408545EF10E07885451305FF
:1007D0000440EF10007D71016FF03F8DEFF25F8CF0
:1007E0006111AA842EC237540040EF10D0402AC0B5
:1007F00013040440A6852285EF10807F01CDEF1001
:10080000903F82471D8D9247E366F5FE0545210125
:100810006FF0BF890145E5BFEFF29F886111AA849F
:100820002EC237540040EF10103D2AC0130404407C
:10083000A6852285EF10607A01EDEF10D03B82474C
:100840001D8D9247E366F5FE054521016FF0FF859A
:100850000145E5BFEFF2DF8461112AC02E84370520
:1008600002009305400632C285448D3F6300950A1D
:1008700037570040130507408545EF10406F370597
:100880000300930540060505413F37570040631EAE
:100890009500094437550040854513050540EF1084
:1008A000A06E228521016FF05F808247130507400B
:1008B00001469395170093F5E50FEF10E0703705AB
:1008C00007009305400613052508B937E30395FC97
:1008D00003A54181EF1090399247B304F4006314EB
:1008E0009400014445BF0C203755004013050540D6
:1008F000EF10C06C37050700930540061305450847
:10090000213F85470504E31CF5FC61B7094451BF4D
:10091000EFF20FF961112AC02E843705020093050A
:10092000400632C285445D3D6301950A3757004059
:10093000130507408545EF108063B7070300930553
:10094000400613851700C93D37570040631E9500C8
:10095000094437550040854513050540EF10C06236
:10096000228521016FF06FF4824713050740054689
:100970009395170093F5E50FEF100065B707030097
:100980009305400613852700413DE30395FC03A52D
:100990004181EF10B02D9247B304F400631494002A
:1009A000014445BF3755004013050540EF10406135
:1009B00008A0370503009305400613050504A93D6B
:1009C00085470504E31CF5FC61B7094451BFEFF20C
:1009D0002FED71113284CC81230006009305310084
:1009E0000546AA84853D11E903A54181EF10102831
:1009F0000546A2852685293F11C1094511016FF0E1
:100A0000CFEAEFF2EFE9111105479387F5FF2A844A
:100A100037150140B317F7002EC613050540A14551
:100A20003ECAEF10E0352945EF10502402C402C041
:100A3000B706002093861600D24736C203C78181CD
:100A400093869181B704002036C8E18F93842400F7
:100A5000060459C79020B7140140C14513850440CE
:100A60003ECCEF102032E247894513850480B5C79C
:100A7000EF10C0309247B71401408823EF10101FC9
:100A8000C247C145138504409023EF10A02F824731
:100A900091451385048086073EC0EF10002D8247E4
:100AA000C98F3EC092478823EF10501CA24785078C
:100AB000C207C1833EC42247B247E36BF7F629451C
:100AC000EF10D01A37150140A14513050540EF106E
:100AD000E02A024571016FF04FDDEF10602A59BF27
:100AE00037150140894513050580B1C7EF1000296E
:100AF00092478823EF1090179020B7140140138578
:100B00000440C145EF1000288247914513850480B9
:100B100086073EC0EF1060258247C98F3EC09247CE
:100B20008823EF10B014C247C145138504409023B9
:100B3000EF104025A5BFEF10A0245DBFEFF24FD608
:100B400031112AC02EC2130540028545EF102063E3
:100B5000B71401408D4741443EC62C00C147138560
:100B600004407C8422C8EF10E012914674842C006B
:100B7000930680021385048036C8EF10A0118946C1
:100B80002C0013850480748422C8EF10A010A146A5
:100B90002C0013850440748422C8EF10A00F024378
:100BA0001247135613001374130093361600238C48
:100BB0008180B70700202381D70037A50700A38CC9
:100BC000C180BA851305051232C0EFF0AFD0B70768
:100BD00000201375F50F25479387170002466372AF
:100BE000A70288A33714014013050440C145EF1044
:100BF0006019A14513050440EF10401851016FF032
:100C0000CFCA294798A3F9BFEFF28FC9A145D53BB9
:100C10001375F50F6FF06FC9EFF28FC8C145D5336B
:100C2000420541816FF06FC8EFF28FC7130141FD9C
:100C30002AC21165130515022E84854532C002C8EB
:100C400002CA02CC02CE02D002D202D4EF1020534C
:100C50006147930700023ACC37170140130507405C
:100C6000FC800C088D473ECAEF10C00237170140C8
:100C700093050004EC801305074091440C0826CC32
:100C8000EF104001924623100102094736CE02467A
:100C90006302E4088D476364870685476309F406A9
:100CA00085476300F6083DCA89476301F608374463
:100CB0000140B1476C08130504802313F10223148B
:100CC0000102EF10E056130504808545EF10206304
:100CD0000546930550521305048002C402C6EF1066
:100CE0006063930700127C8485475C8528008547F4
:100CF0003EC6EF1060331301C1026FF00FBB630DEE
:100D0000F4008D67E31E94F82311F10251BF231103
:100D1000010279B78567CDBF8967FDB7231201024C
:100D200079B7930700602312F10251B7930700408F
:100D3000DDBFEFF2EFB671112AC02E84EF10A06B69
:100D40008247AA84C207C1833EC08245374501401D
:100D500013050580EF10606011E9EF10C069058D83
:100D6000E36585FE054511016FF02FB40145E5BF30
:100D7000EFF20FB32A84B304B50063159400014564
:100D80006FF0AFB293054006130500085D37854745
:100D9000630BF5000C203745014013050580EF106B
:100DA000C05A0504D9BF0945E1BFEFF26FAF03C3D5
:100DB000A18183C7B181230006006303F302138777
:100DC000B18181421384C1816309F30214229383A8
:100DD000170093F3F30F63E8B600638302001CA3CC
:100DE00001456FF08FACA2979C23AA9685429CA2E6
:100DF0001C2285071CA29E87C1BF638402002300BA
:100E00006700EFF01F8BE9BF711122C0374401402A
:100E10009305505213050480EF10C0541DC51305EF
:100E20000480EF1000531387A181102383C7B18181
:100E30009306160093F6F60F6389D7009387C18156
:100E4000B29788A314A3EFF09F85024411017300A9
:100E50002030EFF2EFA4931405017111C18063DC1F
:100E60000500A68537350140EF10E03B7DD90145EF
:100E700011016FF08FA32E84EF10E0572AC0A685D2
:100E800037350140EF10203A7DF1EF10C056824710
:100E90001D8DE36685FE0545E1BFEFF26FA0711180
:100EA0002AC00945AE8405446D378247631B85001F
:100EB000B70700200547A384E700014511016FF043
:100EC000CF9EBE8537350140EF10E033A68505453E
:100ED0004937E30F85FC37350140EF1000331375B8
:100EE000F50FE9BFEFF2CF9B05650111854545057B
:100EF00002C002C202C402C602C802CA02CC231E39
:100F00000100EF10C02785450545EF005068130428
:100F1000800285478A85371501407C8022C4EF0016
:100F200070579307000291448A85371501407C80F1
:100F300026C4EF003056930700087C80E1473EC48A
:100F40008A858D47371501403EC2EF00B0549307A4
:100F500000048A85371501407C8026C4EF00905339
:100F60009D476C0037350140FC8622CC02C602C882
:100F700002CAEF108024814537350140EF10202947
:100F8000854537350140EF10602605616FF0EF9120
:100F9000EFF20F913704002083479400611113048E
:100FA00094001305A00F99C313055005FD55F535A1
:100FB000938271932380A2009307A00A6317F50020
:100FC0001C2093C717001CA0A5A81C20B5EB1383F9
:100FD0005193937715002300F30093866193935701
:100FE00015001981FD8B1386419388A29305400655
:100FF0001305A00F1CA25535AA872388A1920820AB
:10100000138751939384019305ED9382719303C5E4
:1010100002009305D00B938661931386419313834B
:1010200051936312B5020947639CE7489305400654
:101030000545A5351C2089E7930540060145B13DCE
:1010400021016FF08F86942285456380B646CDC21C
:1010500009456389A6648D45E394B6FE1022630FAB
:10106000A6766305D67C85466319D64419468D4617
:101070006394C7481C236391074823AE0190A38360
:1010800001929384C191930540061305A00F313559
:101090001C202383A19213877192639E07449C4076
:1010A0000D46A207C98F9CC01C23850793F7F70F35
:1010B0001CA3E37AF6FC930540061305A00FF13B51
:1010C00018209387C19388C363170742930540068E
:1010D0001305A00FD93323A6A19218202A86631CDA
:1010E00007409387C1938C438840EFF0FFB34DAB2B
:1010F00014225146FD1693F6F60F6360D63C0D663A
:101100008A061306862CB2969442938401928286B4
:1011100091460D456390D7021C2389EF9305400645
:101120001305A00F9D3B938711933EC088A31C20FD
:1011300099C7114588C09C40E38407F051A69305E8
:1011400040061305A00F913B18209387319388A385
:101150006DF3024793054006142337070020130759
:10116000470036971823798D88A31305A00F3533D0
:1011700014201387219308A3CDFE93054006130581
:10118000A00F213B1420D5F6138721939387319329
:101190008C2382479316050110238823C182EFF028
:1011A000CF887D151335150071B78D460D45E39336
:1011B000D7F81C23C1F3930540061305A00FF1399E
:1011C00018209387119388A32DF7930540061305E4
:1011D000A00FE13114201387319308A3B9FA938645
:1011E00011939022B706002093864600B29694226F
:1011F00093054006758D08A31305A00F7939238345
:10120000A19214202A86E39606F2138731939387DE
:1012100011930C238823EFF0CF8C61B70D468D46D8
:10122000639CC70A1C233EC0024785476316F70A22
:10123000930540061305A00F8D3118209387119355
:1012400088A319C3914649A8930540061305A00F2A
:10125000A93114201387319308A3AA85E5F6938753
:1012600011938823B707002093874700AA979C23F0
:1012700013864192FD8D0CA3EFF08F8E8247854639
:10128000630CF5049387419288239305400631311E
:101290001C20638D07147DB705468D46639EC702EB
:1012A00018233EC0631AF702138641928545114503
:1012B000EFF00F8B824785466300F502138741925A
:1012C0000A23930540063335A0000AA3EFF0FFBCC4
:1012D0001420B336D0008A0694C0B1BD09468D46AD
:1012E000E39CC7FE1C2305473EC0E397E7FE138639
:1012F0004192930540060D45EFF0AF9D824785462C
:10130000E30CF5FCB737000003A7C7311385419202
:101310000A21930600001306F03F8145EFF04FA22B
:10132000931755003385A740BD450605EFE01FDA4A
:1013300042059387419241818AA39305400621810A
:10134000EFF0BFB51C209DDFF5BD05468D46E3954A
:10135000C7F81C23D1F3930540061305A00FEFF047
:10136000DFB31C209146ADFBEFF0AF857D159336C2
:1013700015009DB70D468D46E390C7F61C23A9FFC7
:10138000930540061305A00FEFF03FB11820938797
:10139000119388A3E31807EA930540061305A00FED
:1013A000EFF0BFAF1820E31F07E81387119318234E
:1013B000B706002093864600BA9694220547331755
:1013C000A700758F2AC0930540061305A00FA389B7
:1013D000E192EFF09FAC18202A86E31507E602435E
:1013E0009387119388239A85EFF06F9B8146EDB523
:1013F00009468D46E392C7EE1C23E39F07EC930555
:1014000040061305A00FEFF05FA9182093871193F2
:1014100088A3E31907E2930540061305A00FEFF038
:10142000DFA71820AA85E31F07E09387119388237D
:1014300037070020130747002A9718238547B397DB
:10144000B700F98FA389F192EFF0EF9B45B70946FA
:101450008D46E393C7E818238547E31FF7E6930516
:1014600040061305A00FEFF05FA3A388A1921C20F4
:10147000E39A07DCEFF0AF9E9305400609BD0946ED
:101480008D46E39BC7E418238547E317F7E49305EC
:1014900040061305A00FEFF05FA0A388A1921C20C7
:1014A000E39207DAEFF04F9CC1BF10228945630633
:1014B000B60A63E9C5006304D604094723A0E19294
:1014C000854711B68D456309B6109146E317D6FEE0
:1014D0008D466393B70218238547631FF700930572
:1014E00040061305A00FEFF05F9B1C2093848192B0
:1014F00088A0638B0716914623A0D192A1A891469C
:101500000D476397D70483470300B9E3A383019290
:1015100023AE019093847192930540061305A00FAA
:10152000EFF0BF971C202383A1926398070C1387C9
:10153000C1911C430D46A2075D8D9C2008C3850701
:1015400093F7F70F9CA0E379F6FCEFF04FA101476A
:1015500023A0E19283A70192C5B60D4563F5F60479
:1015600083470300A9E3930540061305A00FEFF09E
:10157000DF921C202384A1921387819299C3114585
:101580001DA0A383019293877192902094237D16CE
:1015900063CEC60008234206418293850194EFF092
:1015A0006FAB3335A00023A0A1926DB79305400621
:1015B0001305A00F36C0EFF05F8E82469382019430
:1015C000969688A21420C5FE93877192942385066F
:1015D00094A31387819255BF0D47E3FBF6F683472B
:1015E0000300E397D7F6930540061305A00FEFF02D
:1015F000DF8A2384A1921C2099C3114791BF9020B8
:10160000938501947D1642064182EFF06FB0054745
:10161000E31005F4A383019293877192982090239D
:101620007D176341E602238007008146014613F5DA
:10163000F60F93F5F60F85066346E502E30906F01B
:101640008CA331B713870194329708239305400682
:10165000EFF0BF84182055F3938771929823050704
:1016600098A36DBF0546E1B7930540061305A00F8B
:10167000EFF0BF821C20AA85E39F07E6882013862F
:101680006192EFF0CFB48546E31805E69387619247
:10169000882393054006EFF05F801C20E39D07E45C
:1016A000814699BD10226300D6088D46630FD60A85
:1016B000E315B6E01546E391C7E41C23E39E07E279
:1016C000930540061305A00FEFF02FFD1C20238C7F
:1016D000A192E39207E2A383019223AE0190938447
:1016E0007192930540061305A00FEFF00FFB1C202D
:1016F0002383A192E39107E01387C1910C439C20BF
:101700000D43A2058507C98D93F7F70F0CC39CA065
:1017100093868193E377F3FC88228546E36EA3DC0E
:10172000EFF0CFC1B5BF0D47E3F4F5E28347030007
:10173000E39007E2A3830192938771921305A00FB0
:101740003EC093054006EFF04FF51C20E39707EAF3
:10175000EFF08FCB824702479C23850793F7F70F63
:101760001CA39820E3EFE7FCDDB38D46E376F6D8C3
:101770001C23E39307D8A3830192C1671387719257
:101780009387A7AF3AC08246982094220583E3F955
:10179000E6F013D58700930540061375F50F3EC29A
:1017A000EFF0AFEF14209247E39706D42AC29305D7
:1017B000400613F5F70FEFF04FEE1C20E39D07D224
:1017C00012472207598D42054181EFF0EFC40247CD
:1017D0008246AA871823050798A275B70D45E384AA
:1017E00007DC1C23E39107DCA383019293877192AA
:1017F00098238C206367B70013850194EFF04FD7CF
:101800004DB3930540061305A00F3AC0EFF0EFE883
:10181000024713860194329708A31820E31107D6D4
:10182000938771929823050798A3D9B705468D46EB
:10183000E374F6CC1823E311C7CC9385F7FF138626
:10184000619293F5F50F13850194EFF00FD613878E
:1018500061928546E31205CA082393054006EFF01E
:10186000CFE31C2013876192E39707C81C23E38909
:1018700007E2A38301929387719290231423636EEE
:10188000D60023800700014701469375F70F63E9EF
:10189000D502E30706E094A321B593860194B2969E
:1018A000882293054006EFF04FDF1420E39506C42D
:1018B00093877192942313876192850694A375BFD1
:1018C00005070546D9B77300203001A0EFE24FFDB0
:1018D0000945812FEF00D02CEF009038716501464B
:1018E000854513050520EFF02FB481460146C1451B
:1018F0000D45EFE09F930146C1450D45EFE07F9E0A
:10190000A166054685451145EFE03F920D468145AC
:101910001145EFE0DFC813054006EFE0DFAC81467C
:101920000146A1450D45EFE05F900146A1450D45FB
:10193000EFE03F9BEFF00FDBEFF08FE5F5BFB71760
:1019400002409843B706FFFC1367170098C3D843BB
:10195000758FD8C39843B706F7FEFD16758F98C3E9
:101960009843B706FCFFFD16758F98C3D4434177A3
:101970007D17F98ED4C3B7069F0094C7B7260240DF
:101980009042719A90C290421366160090C2D4435E
:10199000D4C3D443758FD8C3D843B7060001D8C386
:1019A0009843558F98C3984393166700E3DD06FE6E
:1019B000D843B7160240719BD8C3D843136727009A
:1019C000D8C32147DC42B18BE39EE7FE828001A0B1
:1019D00001A001A001A001A001A001A001A001A0FF
:1019E00001A001A001A001A001A001A001A001A0EF
:1019F00001A001A001A001A001A001A001A001A0DF
:101A000001A001A097F1FF1F938141E3138181FCA5
:101A100017250000130505AD97E5FF1F9385855E2B
:101A200017E6FF1F1306866163FAC50083220500CF
:101A300023A0550011059105E3EAC5FE17E5FF1F38
:101A40001305C55F938501A56377B50023200500C5
:101A50001105E36DB5FE93020008739002308D42CC
:101A60007390428097E2FFFF9382C25993E2320063
:101A700073905230EFF0BFEC97020000938242E582
:101A800073901234730020305C413707F1FF130765
:101A9000F7EF7D8FDC419441A207D58FD98F5CC1D0
:101AA0001C4537F7F1FF1307D77FD4457D8F9C493D
:101AB000D58F94458606D58FD98F1CC55C553707C1
:101AC00010FF7D177D8FDC29FD1793F7F70FD207E5
:101AD000D98F5CD582801C4589C593E717001CC54A
:101AE0008280F99BEDBF1C4593E787001CC582806F
:101AF00008450D81058982801C4593E747001CC578
:101B0000828008450981058982801C4591C5370777
:101B10005000D98F1CC582803707B0FF7D17F98F21
:101B2000D5BFA54763F8B704138765FF9317170060
:101B30008322C500BA971D433313F3001343F3FF09
:101B400033735300B397F600B3E767005CC599475A
:101B500063E3C7047D16931726003E965859FD4748
:101B6000B397C70093C7F7FFF98FB395C500DD8D15
:101B70004CD982809397150003230501AE971D472A
:101B80003317F7001347F7FF33776700B397F60073
:101B90005D8F18C96DBFB14763E2C7026516931721
:101BA00026003E961859FD47B397C70093C7F7FF25
:101BB000F98FB395C500DD8D0CD982804D161317B2
:101BC000260054553A96FD47B397C70093C7F7FFD1
:101BD000F58FB395C500DD8D4CD5828068454205F3
:101BE0004181828008416D8D3335A00082805C4147
:101BF000370700FA7D17F98F5CC15C41DD8D4CC160
:101C000082805841032305004C4537060140930765
:101C100006403E979346F3FFB1C583250640F58DF8
:101C20002320B640D043F18ED4C31443B3E66600FC
:101C300014C3184190479346F7FF758E90C7D0475D
:101C4000F18ED4C7144541466399C6009447D98E96
:101C500094C7D447558FD8C78280B6979443558F81
:101C600098C382801C43F58F1CC38280B707014054
:101C70001387074083A70740584B698F09C77D8D9D
:101C80003335A000828001458280B707014023AA36
:101C9000A74082809C45611122C226C013F707012C
:101CA00013F3F70001C7D8413363E30092211377A0
:101CB000F60F29C78323050001471304800293040C
:101CC00080048546B395E600B376B6006392D502EC
:101CD00093122700BD46B396560093C6F6FFB3F3A2
:101CE0007600B3125300B3E37200639787064CC9C2
:101CF0000507A146E317D7FC232075001307F00F53
:101D00006378C70483234500A1461304800293042B
:101D100080040547B312D700337756006394E2027C
:101D2000139726000117BD45B395E50093C5F5FF50
:101D3000B3F375003317E300B36377006392870250
:101D4000232A550085064147E395E6FC23227500CA
:101D50001244824421018280E39C97F80CC949BF58
:101D6000E39297FE23285500F1BF08456D8D33356A
:101D7000A000828008454205418182800CC9828092
:101D80004CC9828019C20CC982804CC98280370339
:101D90000140032743009317350063D00702B707BC
:101DA000C0FFF517F98F37070007D98FD9CD37074F
:101DB00000F07D17798DC98F49A8635D0500B707CD
:101DC000E0FFED17F98F37070007D98FBDCD060566
:101DD0000581D5B7B7073000931605013376F500B6
:101DE000C1826313F602370600F97D16B377C70088
:101DF00003274300798E2322C300A1C955811317FD
:101E000045003395E60045BF9317B50063D407023C
:101E10009357050113F6F7008D47B397C70093C793
:101E2000F7FFF98F37070007D98F85C11357550181
:101E30001207C1BF558112053395A6009347F5FFE0
:101E4000F98F37070007D98FBDF5370701405CC30D
:101E5000828037070140144786058D47B397B70046
:101E600093C7F7FFF58F1CC71C47B315B500DD8D71
:101E70000CC78280EFE2CFA2111146212A842800EC
:101E80002EC08524C246C204C18093F404FCB74529
:101E90000F00938505243685C20436C2C180EFE069
:101EA0006FA3458D420541814AA01E209246C2077C
:101EB000C183F99BC207C1831EA082479043E1679B
:101EC0009387076A9315160063E6C7043685EFE02B
:101ED0006FA0AA874205418191466373D50091475F
:101EE0001395070141814AAC1E20024793E7170072
:101EF0001EA01E2056233227C207C183D18E93F71E
:101F000057BFD58F1EA016275E27D58F1EA471013F
:101F10006FE0AF998247EA23B167FD176310F502BE
:101F2000B2953685EFE00F9B42054181931745013D
:101F300099E313651500A1675D8D75B7B387C5007B
:101F40008E07B385C7003685EFE0CF984205418103
:101F500091675D8DE1BF1E2189C593E717001EA122
:101F60008280C207C183F99BC207C183CDBF1E21F6
:101F700089C593E707101EA18280C207C18393F72A
:101F8000F7EFC207C183C5BF1E2189C593E70720AC
:101F90001EA18280C207C18393F7F7DFC207C18306
:101FA000C5BF1E2189C593E707401EA18280C207D5
:101FB000C18393F7F7BFC207C183C5BF0EA9828053
:101FC0000A291375F50F828093F7E50F19C293E77D
:101FD0001500C207C1831EA982805E290A2D420511
:101FE0005D8D6D8D220521810D8D1335150082804B
:101FF000611102C002C293D7C5012AC23EC0824706
:10200000A205A18199CB9247D1073EC2924788434E
:1020100021016D8D3335A00082809247C181E10797
:10202000EDB723A0A1A48280938701A49443182133
:1020300081E63C21920721A894430546639FC6028E
:102040003C21103192076314D60093E707F8B7E6F6
:1020500000E093F7F70FBA962380F6408546935732
:1020600057003397E6005441A5C2938707048A07B7
:10207000B7E600E0B69798C382808C4389466391A7
:10208000D50214313C216365D6008A06B6975DB748
:102090009386E6038A06B69793F7F70F920775B70C
:1020A00090438D46631CD60014313C216364D600F6
:1020B0008606E9BF9386C6078606F1BF944391471B
:1020C000E39EF6F81C31BDB7938707064DB7B716E8
:1020D0000240DC4241771307F77FF98F5D8DC8C25C
:1020E0008280EFD2FFFB371702405C4391462A847F
:1020F000B18B6385D700A146638DD706B7376E01D4
:10210000938707601CC0B7160240DC42918313F727
:10211000F700B707002093874702BA978C23DC4269
:10212000184093F5F50F93F707083355B70081E78B
:102130003A85EFD03FFA48C008C448C4B7170240F8
:10214000DC43AD83FD8B13D737008A07F18BD98F22
:1021500093F637010D476373D700D1173707002077
:1021600013070701BA978C23EFD0DFF608C86FD0AA
:10217000DFF35C43B777DC02938707C061B799C58B
:10218000371702401C4F5D8D08CF8280B717024081
:10219000984F1345F5FF798D88CF828099C5371701
:1021A00002405C4F5D8D48CF8280B7170240D84F08
:1021B0001345F5FF798DC8CF82801A218D679387EB
:1021C0000704B6217D8F9E21D58FD621D58FF6218C
:1021D000D58F9625D58FB625D58FD625D58FF625C3
:1021E000D58FD98F1EA19E291EA982801E2189C547
:1021F00093E707041EA18280C207C18393F7F7FB10
:10220000C207C183C5BF4EA582804A2582805E2158
:1022100089C593E747005EA18280C207C183ED9B19
:10222000C207C183CDBF0A256D8D3335A0008280E2
:10223000EFD21FE71629F577FD17F58FF621DA257E
:102240002111D58F1EA95625FD779387379FF58FCE
:10225000D6212A842EC0D58F9625D58FB625D58F29
:102260005EA55E29C207C18393F7F7CF5D8F5AA998
:102270004800EFF01FE7B74701409387078082458A
:102280006312F406C2475A24139517003E9542077D
:102290000E0541873E958C41635807048605EFD0B3
:1022A0007FE3930540062AC0EFD0DFE28247931414
:1022B0004500930540063E85EFD09FE45E24C207AB
:1022C000C18763D507020E05930540061305250354
:1022D000EFD05FE01D89C98CC204C18006A46101F2
:1022E0006FD0BFDCB24745B78A0555BF12059305CD
:1022F000400613052503EFD0FFDD3D89E9BF91C5F9
:102300005E250967D98F5EA582805A25F977FD176A
:10231000F98FD5BF13F7F50F85471583B395B70030
:102320006319F7009307C500984301CED98D8CC37C
:102330008280894693074501E318D7FE930705017C
:10234000E5B793C5F5FFF98DDDB793F5F51F4EA100
:1023500082804A211375F51F82800A216D8D3335E5
:10236000A000828013F7F50F85461583B397B6005A
:102370006311D7025A25F98F1A210145420741837B
:1023800081CB0545A181B315B5006D8F3335E000D4
:10239000828089466314D7001A29F1BF5A29E1BF08
:1023A000EFD21FD0938441A49C40A1E7B70700203F
:1023B00003A4C7009305803E2285EFD0BFD1B74567
:1023C0000F0088C0938505242285EFD0BFD023A4B9
:1023D000A1A4B7E700E0056723A0E710B7F700E086
:1023E000D8437D14799BD8C380CB23A407003D47F5
:1023F00098C36FD09FCBEFD2BFCAB7F700E0884732
:1024000083A7C1A4139457001D8C0A043E9483A58E
:1024100041A40E04EFD01FCC22956FD01FC9EFD27C
:102420003FC8B7F700E0844703A5C1A4B7450F0034
:1024300093850524EFD01FC883A581A42A8426850F
:10244000EFD05FC922956FD05FC69387C1A4984330
:10245000050798C3B7F700E023A2070073002030F8
:10246000EFD21FC4EFF0DFF36FD03FC4EFD25FC3F2
:102470002A847537AA846537058DE37EA4FE6FD064
:10248000DFC2370780007D1741113373A70013D6D1
:1024900075019312330022C4135475011374F40FA1
:1024A0006D8F26C21376F60F9354F50116C006C63B
:1024B000FD819A87A286268593133700B302C44014
:1024C000638EB40E6352500C630806149307F00F2A
:1024D000630DF414B7070004B3E3F300ED4763C8DA
:1024E000572893070002B3875740B397F300B3D23E
:1024F0005300B337F000B3E7F2000247B307F740E9
:1025000013975700635F0718370300047D13B3F771
:1025100067003E853EC0EF00905382476D15B3972C
:10252000A7006346851A018D0505130300023303D6
:10253000A3403393670033336000B3D7A700B3E7FA
:102540006700014413F7770019C713F7F7009146A6
:102550006303D700910713975700635807140504C6
:102560001307F00F26856300E4169A07A583937678
:10257000F40FB2402244A607DE06A5837E05DD8E59
:102580009244558D410182806399020A130614001A
:102590001376E60F631806146316042202466302DC
:1025A0000620E38803FC0247B307774013965700E1
:1025B000635A0622B387E340AE8469B76359500A71
:1025C00049CE9307F00F6302F406B7070004B3E3A4
:1025D000F300ED4763C4572093070002B3875740C9
:1025E000B397F300B3D25300B337F000B3E7F20070
:1025F0000247BA97139757006355070A0504130754
:10260000F00F6302E40CB706007E13D71700FD1627
:10261000858B758FD98F3DB7638B0308FD12638758
:1026200002189307F00FE31BF4EA630D030801455A
:102630009306F00FB70740002DBFB307864065EC47
:10264000824663850614FD176383071A9306F00F0D
:10265000631CD60EAE843A83C9BF638A0304FD129D
:10266000638302129307F00FE315F4F67DBF6398BE
:10267000020805041376E40F631E0612639C06101D
:102680000246630B0616E38603EEB3077600139744
:102690005700014463570700370700FC7D17F98F87
:1026A000054413F77700E31207EA13D337009307C3
:1026B000F00FE30CF4F693179300A5839376F40FD1
:1026C000268545BD26859306F00F81475DB5370306
:1026D00000FC7D13B3F7670013F77700098CE3164E
:1026E00007E6E1B78247B387774013975700634205
:1026F000070EE39007E20145814681479DBDB30780
:10270000864025E88246FDCAFD17F5CF9306F00FF7
:10271000E303D6F46D476346F70E824613070002C3
:102720001D8F3397E600B3D7F6003337E000D98F1B
:102730009E973284C1B59306F00FE30DD6F0824622
:1027400037070004558F3AC06D47634BF708824640
:10275000130700021D8F3397E600B3D7F600333717
:10276000E000D98FB387F3403284AE8451BB8547F4
:1027700069B39306F00FE300D6EE824637070004F4
:10278000558F3AC041BF82479E97ADB53A83328498
:10279000AE8431BF93173300E38F07EAE38703E882
:1027A00079B5638303042E85BA87E1B38247B38783
:1027B0007740B9B39307F00FE307F4F082479E9791
:1027C0008583C5B593173300F1FBE38203E6AE843E
:1027D00059B58247AE84B387F34025BB854709BD11
:1027E000854749B7E39F07EA0145814759B3B38756
:1027F000D3403284AE8429B3BA87A5BB3A833284EE
:102800007DB5854735B7B38776003284E5B31301CC
:10281000C1FD9356750126CC131695009354F5010E
:1028200006D022CE93F6F60F2582A682638B061081
:102830009307F00F638CF6100E06B70700045D8E49
:10284000938616F80144814393D77501139395003D
:1028500093F7F70F13539300FD81E5C31307F00FB0
:102860006386E702938717F80E03370700049D8EEF
:102870003363E30081475D8C17150000130585AABB
:102880000A042A940040AD8C22950285938616F0A6
:102890006314030C89475D8C17150000130585AC84
:1028A0000A042A9403230400AD8C1A9502858144FE
:1028B0009305F00FB70740001395970082507244BC
:1028C000939775012581FE045D8D458DE2441301CA
:1028D000410282809305F00F8147F9BF1A86AE82CC
:1028E000BE8389476386F3228D47E382F3FC8547E5
:1028F0006386F30C9385F60793F412006358B018BF
:102900009377760099C79377F60011456383A70004
:1029100011069317460063D80700B70700F8FD17A4
:102920007D8E938506089307E00FE3C5B7FA9317EA
:102930006600A58393F5F50F41B763190304854736
:1029400099BF15E2114481468543FDBD01EA21444A
:102950009306F00F8943CDBD8D4731BF31449306B7
:10296000F00F8D43D5B532852EC432C026C2EF009C
:10297000100E02469307B5FF9306A0F83316F60033
:10298000898E014481439242A2457DBD1A8536CA93
:1029900016C832C61EC42EC21AC0EF00500BD24653
:1029A00002439307B5FFAA963313F3009386660795
:1029B00081479245A2433246C24275BD93F412004C
:1029C00081458147D5BDC16713175300FD17F98FA6
:1029D0003ACA3EC213540701637D660E3285A28552
:1029E00036C632C4EFD00FEF92452AC0EFD08FEC3D
:1029F0002246B246AA873283FD160146A2851A8571
:102A000036C83EC632C4EFD0AFEF2246B2474205C9
:102A1000518DC246637FF500524782453A95138631
:102A2000F5FF6362E50E6370F50E1386E5FF32C0B5
:102A30003A95B307F5403E85A28536C83EC6EFD02D
:102A40006FE992452AC4EFD0EFE6B2472AC2A285C9
:102A50003E85EFD0EFEA124642052243C246637C30
:102A6000C50052479307F3FF3A95636CE508637A14
:102A7000C50879133A9582473306C5403336C000FE
:102A8000C207B3E767005D8EA682ADB50543330389
:102A9000B34091C56D4581458147E34F65E093861D
:102AA000E609B316D600B35766003336D000D18F8F
:102AB00093F6770099C693F6F70011466383C60034
:102AC000910713975700634207049A07A58381452E
:102AD000E5B3135316001A85A28536C832C61AC448
:102AE000EFD04FDF92452AC0EFD0CFDC3246AA8725
:102AF000C2467E064182224311B7AE82BE830146A2
:102B0000CDB33E838DBF32C02DB7854581476DB3B0
:102B100093F412009305F00F814779BB011122CC89
:102B20001354750126CA06CE931495001374F40F3E
:102B3000A5809356F5014DCC9307F00F630CF40C70
:102B4000B70700048E04DD8C130414F88147014696
:102B500013D57501139795001375F50F2583FD8126
:102B60004DC51303F00F630D65020E07130515F82D
:102B700037030004336767002A9481431305140068
:102B800033C3B6002AC03D459A826362F51017151B
:102B90000000130525818A07AA979C433E9502856C
:102BA0001304F40F61EB93E727008943C1BF01438E
:102BB0001307F00FB7074000F2406244A6075E0714
:102BC000A5831315F301D98FD2445D8D05618280F1
:102BD000AE82BA841E8689476306F60A8D47E308EB
:102BE000F6FC85471683631EF61A01478147E9B74D
:102BF000B5E013D57501139795001375F50F91473F
:102C0000014405462583FD8129FD19EB93E7170053
:102C10008543ADB79DE8A1471304F00F09460DBFEA
:102C20003A8532C83EC62EC436C23AC00D25024788
:102C30001303B5FF098C331767001304A4F881430D
:102C40009246A245B247424615BFB1471304F00F62
:102C50000D46FDBD26852EC236C0D52B9307B5FF88
:102C60001304A0F8B394F400098C8147014682460E
:102C70009245F9BD93E737008D4309B78947B6827E
:102C8000E31EF6F416831307F00F814735B7C167CB
:102C9000FD17B3F3F400F98FC18041831E85BE8513
:102CA000EFD04FC1AA82BA851E85EFD0AFC0AA83EC
:102CB000BE852685EFD00FC0AA87BA852685EFD0BE
:102CC0006FBF13D70201BE93BA9363F4F300C167D9
:102CD0003E95C167FD17B3F4F300C204B3F2F200EE
:102CE000A6929394620093D30301B334900093D2DD
:102CF000A201AA93B3E2540093946300B3E4540096
:102D00009397440063D70700024493D71400858843
:102D1000DD8C1307F407635FE00293F7740099C733
:102D200093F7F40091466383D7009104939744008E
:102D300063D80700B70700F8FD17FD8C13070408D8
:102D40009307E00F63CBE70493976400A5831377A1
:102D5000F70F9DB58547B386E74011C76D4601471C
:102D60008147E34BD6E41304E40933948400B3D7DA
:102D7000D400B3348000C58F13F7770019C713F759
:102D8000F70091466303D700910713975700634CF0
:102D900007009A07A583014705B51307F00F814780
:102DA00021BD0244BDB70547814739B5B70680004C
:102DB000FD163111B3F7A6001357750113D675012F
:102DC0007D811377F70FED8E22C626C41376F60F9A
:102DD00006C89303F00F3EC22AC03A84939437008A
:102DE000FD81939236003303C7406303761093C589
:102DF0001500630EB5106354600C631106106388F0
:102E0000021E7D13B3875440630703029307F00F3C
:102E1000630BF716ED4763CA672893070002B38771
:102E20006740B397F20033D36200B337F000B36763
:102E3000F300B387F440139757006354071AB7049D
:102E40000004FD14E58F3E853EC2112192476D15A9
:102E5000B397A7006341851C018D0505930200020D
:102E6000B382A240B3925700B3325000B3D7A70049
:102E7000B3E75700014413F7770019C713F7F700BA
:102E800091466303D700910713975700635F0714B8
:102E9000824605041307F00F13F516006309E416C4
:102EA0009A07A5831377F40FC2403244A6075E0742
:102EB000A5837E055D8FA244598D510182806315E3
:102EC000030A130617001376E60F63110616631341
:102ED000072263800420E38902FCB3875440939661
:102EE000570063D20622B387924001442EC061B7D7
:102EF000E38F02EE630DB50AE35360FC9307F00F16
:102F00006303F708B7070004B3E2F20021B7635088
:102F1000600A51C29307F00F6307F706B707000472
:102F2000B3E2F200ED4763CC671C93070002B3875E
:102F30006740B397F20033D36200B337F000B36752
:102F4000F300A69713975700635D0708050413075E
:102F5000F00F630EE40AB706007E13D71700FD16C4
:102F6000858B758FD98F01BFB307E64063160710B5
:102F700063880414FD17638E07181307F00F63149A
:102F8000E6102EC036C29247C1C301451307F00FA9
:102F9000B707400011BF638C02047D13B387540050
:102FA000E30203FA9307F00FE31EF7F6E9BF631B92
:102FB0000308130417001376E40F63110612631558
:102FC0000710638D0414E38102EEB3875400139756
:102FD0005700014463570700370700FC7D17F98F3E
:102FE000054413F77700E31B07E88D833EC2930780
:102FF000F00FE30AF4F8924782461377F40FA6071E
:10300000A58313F516004DB5824713F51700130776
:10301000F00F814751BDB70200FCFD12B3F7570016
:1030200013F77700098CE31B07E4C1B7B38754405B
:1030300013975700634C070AE39707E001450147E0
:1030400081479DB5B307E6403DC31307F00FE30B7F
:10305000E6F237070004D98C6D476346F70C130777
:1030600000021D8F3397E400B3D7F4003337E0003C
:10307000D98F96973284F9B51307F00FE303E6F082
:1030800037070004D98C6D47634DF706130700021C
:103090001D8F3397E400B3D7F4003337E000D98FA6
:1030A000B387F24032842EC079B3854759B3ADC897
:1030B000FD17A5CF1307F00FE310E6FA36C2E1B50E
:1030C00036C232842EC025B7E38E04EAE38D02EACD
:1030D0006DBD638D02022E85B687F9B39307F00F9D
:1030E000E307F4F2B38754008583E5BDB3879240CC
:1030F0002EC091BBE1FCE38A02E82EC061B5854792
:1031000089B5854771BF0144E39D07EC01458147BF
:1031100061BBB387924032842EC031BBB68769B39E
:1031200036C23284E9B58547A9B7B38754003284E3
:1031300011BD13577501370680009307F6FF13770B
:10314000F70F9305E007B3F6A7009357F501014584
:1031500063F4E50099C3828082809307E0097D557E
:10316000E3EBE7FE93055009B3E7C60063D7E5003C
:103170001307A7F63395E70082801305600933072C
:10318000E54033D5E7008280511106C422C226C033
:103190000DCD9357F54133C4A7001D8CAA84228519
:1031A0007D209307E0093387A74093076009FD80DE
:1031B00063CCE702A1469377F70F63D5A6006115AC
:1031C0003314A4002604258021A0814481470144B2
:1031D000260413559400A2401244DE07FE045D8DC0
:1031E000458D8244310182809307900963DDE700B9
:1031F0009307B5019546B317F400898EB356D400F2
:103200003334F000558C954763D6A7009307B5FF7C
:103210003314F400B70600FCFD1693777400337680
:10322000D40085C39377F4009145638CB7001106F1
:103230009317560063D707009307F009758E3387FD
:10324000A7401314660025809377F70F51B7C16725
:10325000637CF5029307F00F1307000263EBA700EE
:103260009707000093870718AA9788233305A7407C
:1032700082802181970700009387C716AA97882329
:1032800061473305A7408280B7070001636DF500F1
:103290006181970700009387E714AA978823214745
:1032A0003305A740828041819707000093878713E9
:1032B000AA97882341473305A740828000007A44BB
:1032C0000006001E7D00000010110000AA11000081
:1032D0001C120000BA140000BA140000BA14000056
:1032E000BA140000BA14000098120000DC120000AA
:1032F000BA140000BA140000BA140000BA14000096
:10330000BA140000BA1400004A130000741300003D
:10331000F01300004E1400007E14000033335340BD
:10332000A6F6FFFFB4F5FFFFA0F6FFFFBCF5FFFF19
:10333000A0F6FFFF8EF5FFFFA0F6FFFFBCF5FFFF35
:10334000B4F5FFFFB4F5FFFF8EF5FFFFBCF5FFFFFF
:10335000C2F5FFFFC2F5FFFFC2F5FFFF8EF5FFFFCD
:1033600074F5FFFF74F5FFFF60F6FFFF9AF7FFFFAC
:1033700060F6FFFF4EF5FFFF60F6FFFF9AF7FFFFD5
:1033800074F5FFFF74F5FFFF4EF5FFFF9AF7FFFF9F
:1033900082F5FFFF82F5FFFF82F5FFFF4EF5FFFF8D
:1033A000EEF8FFFF32F8FFFF32F8FFFF30F8FFFFC3
:1033B00036F8FFFF36F8FFFF0EF8FFFF30F8FFFF8B
:1033C00036F8FFFF0EF8FFFF36F8FFFF30F8FFFF7B
:1033D000DCF8FFFFDCF8FFFFDCF8FFFF0EF8FFFF73
:1033E00000010202030303030404040404040404AC
:1033F000050505050505050505050505050505057D
:10340000060606060606060606060606060606065C
:10341000060606060606060606060606060606064C
:10342000070707070707070707070707070707072C
:10343000070707070707070707070707070707071C
:10344000070707070707070707070707070707070C
:1034500007070707070707070707070707070707FC
:1034600008080808080808080808080808080808DC
:1034700008080808080808080808080808080808CC
:1034800008080808080808080808080808080808BC
:1034900008080808080808080808080808080808AC
:1034A000080808080808080808080808080808089C
:1034B000080808080808080808080808080808088C
:1034C000080808080808080808080808080808087C
:1034D000080808080808080808080808080808086C
:1034E000011401000006000E78010000006CDC02EF
:1034F0000204060804080C100810182010203040A0
:10350000204060800102030405060708010203044D
:08351000050607080000000099
:00000001FF
